:020000040800F2
:1000000000A000204D2000089D2000089D20000831
:100010009D2000089D2000089D2000080000000091
:100020000000000000000000000000009D2000080B
:100030009D200008000000009D20000841050008E8
:100040009D2000089D2000089D2000089D2000089C
:100050009D2000089D2000089D2000089D2000088C
:100060009D2000089D2000089D2000089D2000087C
:100070009D2000089D2000089D2000089D2000086C
:100080009D2000089D2000089D2000089D2000085C
:100090009D2000089D2000089D2000089D2000084C
:1000A0009D200008510500089D2000089D200008A3
:1000B0009D2000085D050008690500089D200008D6
:1000C0009D2000089D2000089D2000089D2000081C
:1000D0009D2000089D2000089D2000089D2000080C
:1000E0009D2000089D2000089D2000089D200008FC
:1000F0009D2000089D2000089D2000089D200008EC
:100100000000000000000000000000009D2000082A
:100110009D2000089D2000089D2000089D200008CB
:100120009D2000089D2000089D2000089D200008BB
:100130009D2000089D200008000000000000000035
:100140009D2000089D2000089D2000080000000060
:10015000000000000000000000000000000000009F
:1001600000000000000000009D2000089D20000805
:100170009D200008000000000000000000000000BA
:08018000000000009D200008B2
:1001880010B5054C237833B9044B13B10448AFF3C9
:1001980000800123237010BD04000020000000002F
:1001A800E820000808B5034B1BB103490348AFF327
:1001B800008008BD0000000008000020E8200008BA
:1001C8002F4B70B55A692F4D42F400125A615A6983
:1001D8008CB002F400120192019A5A6942F400228A
:1001E8005A615A6902F400220292029A5A6942F448
:1001F80080025A615A6902F480020392039A5A698A
:1002080042F400325A615A6902F400320492049AA4
:100218005A6942F480125A615A6902F480120592AE
:10022800059A5A6942F480225A615B6903F4802373
:100238000022069328464FF60871069B00F0CAFC78
:1002480037230024079307A90F4B08932846012654
:10025800099400F0FDFB4FF6087307A92846079399
:10026800089609940A9400F0F3FB07A94FF0904010
:1002780007960894099400F0EBFB0CB070BD00BF22
:1002880000100240001000480000121008B5154880
:10029800154B1649012280E80A0000238360C260DA
:1002A800036143618361C361036200F09CFC18B180
:1002B80042210F4800F0AAF800210A4800F0E4FCA7
:1002C80018B149210A4800F0A1F80021054800F0BA
:1002D80001FD28B150210648BDE8084000F096B855
:1002E80008BD00BF240000200E0900200054004073
:1002F800002100087FB502680F4B9A4218D1C0232D
:1003080001931223029301230393032304930423E9
:100318000DEB03010948059300F09AFB084BDA69D5
:1003280042F40012DA61DB6903F400130093009BC6
:1003380007B05DF804FB00BF00540040000400480B
:100348000010024010B59EB0032305934FF4A0237C
:100358000693002307930123099310230A934FF46C
:10036800803302240D9305A84FF4E0130C940E93E8
:1003780000F02AFD00B1FEE70F238DE81800029077
:100388004FF48063049021466846039300F0C0FF51
:1003980000B1FEE70E4B16901D900FA80F9301F0C9
:1003A8007FF8044600B1FEE701F074F84FF47A7361
:1003B800B0FBF3F000F024FB042000F037FB2246EA
:1003C80021464FF0FF3000F0DBFA1EB010BD00BF31
:1003D8002000020008B500F0A1FAFFF7B3FFFFF70D
:1003E800EFFEFFF753FF00F013F800F03FFA00F0BC
:1003F800F1F800F083F900F0DDF9034801F0ABF9FA
:1004080001F01CFEFCE700BF54010020FEE70000DD
:10041800114812494FF4407208B54FF48273C26014
:100428004FF4007280E80A00826100230822072145
:10043800836003614361C261036243628362C16294
:100448000363426301F032F928B147210448BDE84B
:100458000840FFF7DBBF08BD7000002000300140F6
:10046800122100087FB502680F4B9A4219D103F593
:10047800604301A99A6942F480529A619B6903F426
:1004880080530093009BE0230193022302930023EF
:100498000393032304934FF090400523059300F042
:1004A800D7FA07B05DF804FB00300140214B07B5CF
:1004B8009A6942F001029A619A6902F00102009277
:1004C800009ADA6942F08052DA61DB6903F08053FE
:1004D80001930720019B00F041FA002211466FF0BA
:1004E8000B0000F04DFA002211466FF00A0000F0F0
:1004F80047FA002211466FF0090000F041FA002285
:1005080011466FF0040000F03BFA002211466FF02C
:10051800030000F035FA002211466FF0010000F0E8
:100528002FFA002211464FF0FF3000F029FA03B0ED
:100538005DF804FB0010024008B500F001FABDE8C0
:10054800084000F080BA0000014801F014B900BF6B
:1005580054010020014801F00EB900BF1401002029
:10056800014801F008B900BFD40000201549D1F8AE
:10057800883043F47003C1F88830134B1A6842F08E
:1005880001021A605868114A02405A601A6822F03B
:10059800847222F480321A601A6822F480221A6067
:1005A8005A6822F4FE025A60DA6A22F00F02DA620E
:1005B800186B074A02401A6300229A604FF00063E2
:1005C8008B60704700ED00E0001002400CC07FF81F
:1005D800CCFC00FF0B480C4908B5472380E80A000B
:1005E80040F2E73200238360C260036143618361A4
:1005F80001F0D0F928B1AA210448BDE80840FFF766
:1006080005BF08BD54010020004401403421000802
:100618001FB503681F4A934214D11F4BDA6942F091
:100628000202DA61DB69002203F0020301931D2054
:100638001146019B00F0A4F91D2000F0D5F905B082
:100648005DF804FB154A934210D1134BDA6942F066
:100658000402DA61DB69002203F0040302931E201E
:100668001146029B00F08CF91E20E6E70C4A9342E3
:10067800E5D1094B9A6942F400329A619B690022DC
:1006880003F40033039319201146039B00F078F913
:100698001920D2E700040040001002400008004082
:1006A800004401407FB50368104A93420FD14FF4CC
:1006B800A073002201930E4803920223029304922E
:1006C800059301A900F0C4F907B05DF804FB094AD5
:1006D8009342F9D14FF4405300220193022302932D
:1006E80003920492059301A90348EBE70004004034
:1006F8000008004800080040000C004800B52A48DF
:100708002A4947238FB080E80A0040F2E7320023E5
:100718008360C2600361836101F03CF918B1422132
:100728002348FFF773FE0EA94FF4805341F82C3D80
:100738001D4801F077FA18B148211D48FFF766FEF9
:10074800194801F041F918B14D211948FFF75EFE2B
:100758000023694614480093029301F009FC18B17C
:1007680054211348FFF752FE0022602307A90E48C0
:100778000793089209920B9201F072FB18B15D2160
:100788000B48FFF743FE082207A9074801F068FB5A
:1007980018B162210648FFF739FE0348FFF782FFC8
:1007A8000FB05DF804FB00BF1401002000040040F6
:1007B8003421000800B52A482A4947238FB080E829
:1007C8000A0040F2E73200238360C260036183615C
:1007D80001F0E0F818B177212348FFF717FE0EA9BA
:1007E8004FF4805341F82C3D1D4801F01BFA18B115
:1007F8007D211D48FFF70AFE194801F0E5F818B1F8
:1008080082211948FFF702FE002369461448009325
:10081800029301F0ADFB18B189211348FFF7F6FDEB
:100828000022602307A90E480793089209920B92A9
:1008380001F016FB18B192210B48FFF7E7FD0422DF
:1008480007A9074801F00CFB18B197210648FFF7E4
:10085800DDFD0348FFF726FF0FB05DF804FB00BF7E
:10086800D400002000080040342100080B480C4A3E
:1008780008B5082380E80C00002302228260C360C8
:1008880002618361036200F04AFA28B141210548F8
:10089800BDE80840FFF7BABD08BD00BF94010020BD
:1008A800005C0040462100087FB502680F4B9A4261
:1008B80019D14FF4C05301930223029300230393E9
:1008C8000323049301A90E234FF09040059300F0F1
:1008D800BFF8074BDA6942F40002DA61DB6903F416
:1008E80000030093009B07B05DF804FB005C004028
:1008F8000010024010B5084B044618684FF47A738C
:10090800B0FBF3F000F07CF8002221464FF0FF30F6
:1009180000F036F8002010BD00000020074A08B596
:10092800136843F010031360032000F017F8002049
:10093800FFF7E0FFFFF7BAFD002008BD00200240E6
:10094800024A136801331360704700BF3C0500205A
:10095800014B1868704700BF3C050020074AD36860
:1009680023F4E0631B041B0C43F0BF63000243F451
:10097800003300F4E0600343D360704700ED00E00B
:10098800174B30B5DC68C4F30224C4F10703251DF6
:10099800042B28BF0423062D4FF0010505FA03F3A5
:1009A80003F1FF338CBF033C00241940A14005FA32
:1009B80004F4013C2240002842EA01024FEA0212F4
:1009C800AFBF00F1604000F00F00064BD2B2A5BFE8
:1009D80000F56140D2B21A5480F8002330BD00BF40
:1009E80000ED00E014ED00E04209012300F01F00D3
:1009F80003FA00F0014B43F82200704700E100E0E1
:100A08000138B0F1807F0AD2064B074A5860F021BE
:100A180082F823100020072298601A60704701208E
:100A2800704700BF10E000E000ED00E0044B1A68DA
:100A380004280CBF42F0040222F004021A60704736
:100A480010E000E0704708B5FFF7FCFF08BD0000A4
:100A58002DE9F74FD1F80080DFF874915A4A002346
:100A680038FA03F402D103B0BDE8F08F012404FA88
:100A780003FA18EA0A0500F09C804C6824F0100B71
:100A8800BBF1020F14D14FEAD30E00EB8E0E03F028
:100A9800070CDEF820604FEA8C0C0F2707FA0CF7DA
:100AA80026EA07070E6906FA0CF63E43CEF82060E0
:100AB8004FEA430C0327066807FA0CF7FF4304F0D4
:100AC800030E3E400EFA0CFE0BF1FF3B4EEA060603
:100AD800BBF1010F066011D8866806EA070BCE68DD
:100AE80006FA0CFE4EEA0B068660466826EA0A0AF3
:100AF800C4F300169E4046EA0A064660C6683740B8
:100B08008E6806FA0CF63743E600C76051D5D9F867
:100B1800186046F00106C9F81860D9F8186023F083
:100B2800030707F1804706F0010607F580370196AD
:100B380003F0030C019EBE684FEA8C0C4FF00F0EB9
:100B48000EFA0CFEB0F1904F26EA0E0E33D01F4E6F
:100B5800B04232D006F58066B04230D006F58066E5
:100B6800B0422ED006F58066B04214BF0526042692
:100B780006FA0CF646EA0E06BE601668EF4314F451
:100B8800803F0CBF3E402E431660566814F4003F69
:100B98000CBF3E402E435660966814F4801F0CBF6D
:100BA8003E402E439660D668A40254BF3E402E4372
:100BB800D660013354E70026DAE70126D8E7022693
:100BC800D6E70326D4E700BF00040140000400482C
:100BD800001002400AB18161704781627047436921
:100BE80059404161704710B5044600284AD090F832
:100BF800413003F0FF021BB980F84020FFF77AFB71
:100C0800242384F841302368E1681A6822F001023D
:100C18001A60626822F070621A619A68012922F4E7
:100C280000429A60A26824D142F400429A605A684D
:100C3800616942F0007242F400425A60DA6822F4B4
:100C48000042DA6022690A43A16942EA0122DA60B5
:100C5800216AE2690A431A601A6842F001021A60BE
:100C680000202023606484F84130206384F8420027
:100C780010BD42F4044202299A6004BF4FF4006296
:100C88005A60D4E7012010BD90F84120D2B2202A42
:100C980010B51DD190F84030012B19D0242380F8CD
:100CA800413003681C6824F001041C601C6824F4AB
:100CB80080541C601C6821431960196841F00101C7
:100CC8001960002380F8412080F84030184610BD94
:100CD800022010BD10B590F84140E4B2202C1CD180
:100CE80090F84030012B18D0242380F84130036855
:100CF8001A6822F001021A601A6822F4706242EA45
:100D0800012119601A6842F001021A60002380F874
:100D1800414080F84030184610BD022010BD38B55B
:100D2800044600284DD090F8713303F0FF021BB938
:100D380080F87023FFF7B8FD03230021606884F86A
:100D480071330A4604F128030125814203F11C038B
:100D58001BD1002004F5E6720346814202F11C0211
:100D680021D1226801214FF43F40A2F84010A2F897
:100D78004030A2F84430A2F85030A2F8400084F87D
:100D88002430002084F8711338BD03F81C1C03F8C4
:100D98001B5C03F8192C43F8102C43F80C2C43F86F
:100DA800082C0131D1E702F81C0C02F81B3C02F8B0
:100DB800193C42F8103C42F80C3C42F8083C01301F
:100DC800CBE7012038BD00000368DA072DE9F347B7
:100DD800054611D42B689B0700F188802B681C07F7
:100DE80000F1F8802B68580700F14181EA69002A70
:100DF80040F0D781002021E0BA4C636803F00C036F
:100E0800042B07D0636803F00C03082B19D163681F
:100E1800DF0316D54FF4003393FAA3F2216893FA4F
:100E2800A3F3B3FA83F303F01F03012202FA03F3D7
:100E38000B42CFD06B68002BCCD1012002B0BDE8AB
:100E4800F0876A68B2F5803F25D1236843F4803380
:100E58002360E36AA96823F00F030B43E36252B3EC
:100E6800FFF776FD4FF400368046012796FAA6F381
:100E7800226896FAA6F3B3FA83F303F01F0307FA7E
:100E880003F31342A6D1FFF763FDA0EB0800642823
:100E9800ECD90320D2E7236832B923F480332360E6
:100EA800236823F48023D3E7B2F5A02FF5D143F4C8
:100EB80080232360C9E7FFF74BFD4FF400368046D7
:100EC800012796FAA6F3226896FAA6F3B3FA83F3F3
:100ED80003F01F0307FA03F313423FF47BAFFFF756
:100EE80037FDA0EB08006428EBD9D2E77D4C636896
:100EF80013F00C0F07D0636803F00C03082B21D103
:100F08006368DE031ED4022393FAA3F2216893FADE
:100F1800A3F3B3FA83F303F01F03012202FA03F3E6
:100F28000B4202D02B69934287D12168F82393FAA8
:100F3800A3F3B3FA83F26B69934021F0F8021343E9
:100F480023604BE72A6901260AB396FAA6F3B3FA97
:100F580083F303F1845303F584139B0002271E6077
:100F6800FFF7F6FC804697FAA7F3226897FAA7F3EB
:100F7800B3FA83F303F01F0306FA03F31342D4D141
:100F8800FFF7E6FCA0EB08000228ECD981E796FA07
:100F9800A6F3B3FA83F303F1845303F584139B0098
:100FA80002271A60FFF7D4FC804697FAA7F3226855
:100FB80097FAA7F3B3FA83F303F01F0306FA03F3D0
:100FC80013423FF40BAFFFF7C3FCA0EB0800022865
:100FD800EBD95EE7AA69434E434901241AB394FA50
:100FE800A4F3B3FA83F30B449B0002271C60FFF7BA
:100FF800AFFC804697FAA7F397FAA7F397FAA7F3F7
:10100800726A97FAA7F3B3FA83F303F01F0304FA9B
:1010180003F313427FF4E6AEFFF79AFCA0EB080057
:101028000228E7D935E794FAA4F3B3FA83F30B441B
:101038009B0002271A60FFF78BFC804697FAA7F3FC
:1010480097FAA7F397FAA7F3726A97FAA7F3B3FA8E
:1010580083F303F01F0304FA03F313423FF4C2AE11
:10106800FFF776FCA0EB08000228E7D911E71D4C32
:10107800E369D90034D4E36943F08053E361E36959
:1010880003F080530193019B0126184F3B68DA0552
:101098002ED5EB68012B3CD1236A43F00103236270
:1010A800FFF756FC02278246B9464FF0010897FA27
:1010B800A7F397FAA7F3002B6BD0226A99FAA9F342
:1010C800B3FA83F303F01F0308FA03F3134257D06C
:1010D800002E3FF48BAEE36923F08053E36185E68D
:1010E8000026D2E7001002402081901000700040D6
:1010F8003B6843F480733B60FFF72AFC80463B68FB
:10110800DB05C6D4FFF724FCA0EB08006428F6D959
:10111800BFE63BBB236A23F001032362236A23F063
:1011280004032362FFF714FC02278246B9464FF0F6
:10113800010897FAA7F397FAA7F373B3226A99FA03
:10114800A9F3B3FA83F303F01F0308FA03F3134276
:10115800BED0FFF7FDFB41F28833A0EB0A009842AE
:10116800E7D996E6052B236A03D143F004032362EB
:1011780092E723F001032362236A23F004038EE736
:10118800FFF7E6FB41F28833A0EB0A0098428ED9BC
:101198007FE697FAA7F3626A90E797FAA7F3626A7D
:1011A800CDE7414C636803F00C03082B3FF445AED0
:1011B800022A4FF0807352D193FAA3F3B3FA83F360
:1011C80003F1845303F584139B0000221A60FFF790
:1011D800BFFB4FF000778046012697FAA7F32268F5
:1011E80097FAA7F3B3FA83F303F01F0306FA03F39E
:1011F80013422DD162686B6A296A22F474120B4378
:10120800134363604FF0807393FAA3F3B3FA83F345
:1012180003F1845303F584139B004FF000751E609F
:10122800FFF796FB0126074695FAA5F3226895FA7B
:10123800A5F3B3FA83F303F01F0306FA03F313428B
:101248007FF4D8ADFFF784FBC01B0228ECD920E659
:10125800FFF77EFBA0EB08000228BED919E693FA37
:10126800A3F3B3FA83F303F1845303F584139B00C8
:1012780000221A60FFF76CFB4FF000750746012645
:1012880095FAA5F3226895FAA5F3B3FA83F303F068
:101298001F0306FA03F313423FF4ACADFFF758FB04
:1012A800C01B0228ECD9F4E50010024010B5134C1D
:1012B800616801F00C03082B1ED14FF4701393FAE8
:1012C800A3F301F47012B3FA83F322FA03F30C4A7E
:1012D800D05CE36A0F2292FAA2F2B2FA82F203F029
:1012E8000F03D340074AD25CCB034ABF064B074BD8
:1012F800B3FBF2F3584310BD034810BD0010024081
:10130800582100086821000800127A0000093D00F1
:101318005C4A136803F007038B422DE9F041064647
:101328000D4630D3326891073AD4D20740D4554A93
:10133800136803F007039D42C0F092803268524C54
:1013480012F0040F40F09780130706D563683269DE
:1013580023F4605343EAC2036360FFF7A7FF63689F
:10136800F02292FAA2F2B2FA82F203F0F003D3402A
:10137800464AD35CD840464B18600020FFF7BAFABB
:101388000020BDE8F081136823F007030B431360C6
:10139800136803F007039942C4D00120BDE8F08127
:1013A8003949B0684B6823F0F00303434B60BCE74E
:1013B8007268354C012A28D14FF4003393FAA3F10F
:1013C800216893FAA3F3B3FA83F303F01F0302FA35
:1013D80003F30B42E1D0636823F003031A4362600E
:1013E800FFF7B6FA7368012B074641F288381FD118
:1013F800636803F00C03042B99D0FFF7A9FAC01B0C
:101408004045F5D90320BDE8F081022A0CBF4FF012
:101418000073022393FAA3F1206893FAA3F3B3FAB3
:1014280083F303F01F03012101FA03F30342D1E719
:10143800022B10D1636803F00C03082B3FF477AF3D
:10144800FFF786FAC01B4045F4D9DBE7FFF780FABF
:10145800C01B4045D6D8636813F00C0FF6D166E779
:10146800136823F007032B431360136803F0070383
:101478009D4292D162E76368F16823F4E0630B430D
:10148800636061E700200240001002402421000848
:1014980000000020014B1868704700BF00000020C2
:1014A80003682DE9F347DD03044623D57C4DEB693A
:1014B800D80000F19880EB6943F08053EB61EB6949
:1014C80003F080530193019B0126764F3B68D905B1
:1014D80040F18B802B6A13F4407340F09B802B6A99
:1014E800626823F4407313432B621EB1EB6923F047
:1014F8008053EB612068C70706D5694AA168136B5A
:1015080023F003030B431363860706D5644AE16897
:10151800136B23F440330B431363450706D5604A26
:101528002169136B23F440230B431363810606D50B
:101538005B4AE169136B23F010030B4313638203C7
:1015480006D5574AA16B536823F480030B435360B5
:10155800430606D5524A216A136B23F020030B4336
:101568001363070706D54E4A6169136B23F44013CA
:101578000B431363C60606D5494AA169136B23F4C6
:1015880040030B431363850506D5454AE16A536852
:1015980023F400030B435360010606D5404A616AF1
:1015A800D36A23F4F8730B43D362C20506D53C4AC9
:1015B800A16AD36A23F478530B43D362C30406D5D4
:1015C800374A216B136B23F480730B43136310F4B6
:1015D80000501CD0324A616B136B23F400730B4329
:1015E8001363002013E000266FE73B6843F4807321
:1015F8003B60FFF7ADF980463B68DA053FF56AAF17
:10160800FFF7A6F9A0EB08006428F5D9032002B07B
:10161800BDE8F087626802F4407293423FF45FAF1E
:10162800296A4FF4803321F4407093FAA3F2DFF86B
:1016380078E0B2FA82F2724492000127176093FAB6
:10164800A3F3B3FA83F373449B0000221A60CB0719
:1016580028627FF544AFFFF77BF94FF00208824616
:10166800C14698FAA8F398FAA8F3A3B12A6A99FA96
:10167800A9F3B3FA83F303F01F0307FA03F3134242
:101688007FF42DAFFFF764F941F28833A0EB0A002D
:101698009842E6D9BAE798FAA8F36A6AE7E700BF7A
:1016A80000100240007000400081901070B50446A0
:1016B80000284ED00023836290F85D3003F0FF02CB
:1016C8001BB980F85C20FEF7CDFE0223216884F860
:1016D8005D300B68E26823F04003B2F5E06F0B6001
:1016E8004FF0000332D91846B2F5706F18BFA362E5
:1016F800236B2BB9B2F5E06F8CBF02230123236360
:10170800A6686368A569334326693343666933432A
:10171800E6693343266A3343A66A334305F4007601
:1017280033430B60636A1A43636B2D0C1A4305F04D
:1017380004052A4302434A60CB6923F40063CB6162
:1017480000200123206684F85D3070BD4FF480507E
:10175800CCE7012070BD0368DA6842F00102DA6064
:101768001A6842F001021A600020704770477047FB
:1017780070477047704703681A69910710B50446A7
:101788000FD5DA6892070CD56FF002021A619B69CF
:1017980001229907027700F08580FFF7E9FF00230F
:1017A800237723681A69520710D5DA6850070DD5D0
:1017B8006FF004021A619B69022213F4407F2277BA
:1017C800204675D0FFF7D4FF0023237723681A69D2
:1017D80011070FD5DA6812070CD56FF008021A61E5
:1017E800DB6904229B072277204667D0FFF7C0FFFA
:1017F8000023237723681A69D00610D5DA68D10642
:101808000DD56FF010021A61DB69082213F4407FCE
:101818002277204658D0FFF7ABFF002323772368B1
:101828001A69D20708D5DA68D00705D56FF0010222
:101838001A61204600F0C6FB23681A69110608D50C
:10184800DA68120605D56FF080021A61204600F0AA
:10185800B6FB23681A69D00508D5DA68110605D5DC
:101868006FF480721A61204600F0AAFB23681A6997
:10187800520608D5DA68500605D56FF040021A619D
:101888002046FFF777FF23681A69910622D5DA68A0
:1018980092061FD56FF0200220461A61BDE810405D
:1018A80000F08CBBFFF763FF2046FFF762FF76E787
:1018B800FFF75DFF2046FFF75CFF85E7FFF757FF5F
:1018C8002046FFF756FF93E7FFF751FF2046FFF743
:1018D80050FFA2E710BD00002C4A036890420ED0CA
:1018E800B0F1804F0BD0A2F59432904207D002F5A8
:1018F8008062904203D002F59632904215D14A6830
:1019080023F070031343214A904219D0B0F1804F5D
:1019180016D0A2F59432904212D002F5806290421D
:101928000ED002F5963290420AD0194A904207D05A
:1019380002F58062904203D002F58062904203D1A2
:10194800CA6823F4407313434A6923F0800313439E
:1019580003608B68C3620B6883620C4B98420FD09C
:1019680003F5006398420BD003F54063984207D013
:1019780003F58063984203D003F58063984201D150
:101988000B69036301234361704700BF002C0140CA
:101998000040014010B50446A0B190F83D3003F076
:1019A800FF021BB980F83C20FEF732FE022384F8C0
:1019B8003D302068211DFFF78FFF012384F83D305B
:1019C800002010BD012010BD10B50446A0B190F84C
:1019D8003D3003F0FF021BB980F83C20FFF7C6FE3C
:1019E800022384F83D302068211DFFF775FF01238D
:1019F80084F83D30002010BD012010BD036A23F09B
:101A080001030362036A70B5446882690D6822F4B1
:101A1800803222F073022A438D6823F002032B439D
:101A28001B4DA8420FD005F50065A8420BD005F55F
:101A38004065A84207D005F58065A84203D005F5A2
:101A48008065A8421ED1CD6823F008032B43104DB2
:101A5800A84223F004030FD005F50065A8420BD077
:101A680005F54065A84207D005F58065A84203D072
:101A780005F58065A84205D124F440758E694C6946
:101A880034432C43446082614A684263036270BDF8
:101A9800002C0140036A23F010030362036A70B547
:101AA800446882690D6822F0807222F4E64242EAB4
:101AB80005228D6823F0200343EA0513164DA8423A
:101AC80003D005F50065A8420DD1CD6823F0800349
:101AD80043EA0513104DA84223F040030ED005F544
:101AE8000065A8420AD00D4DA84207D005F58065CB
:101AF800A84203D005F58065A84206D124F44065C4
:101B08008E694C69344345EA8404446082614A68BA
:101B18008263036270BD00BF002C01400040014099
:101B2800036A23F480730362036A70B54468C26968
:101B38000D6822F4803222F073022A438D6823F460
:101B4800007343EA0523164DA84203D005F5006546
:101B5800A8420DD1CD6823F4006343EA0523104D54
:101B6800A84223F480630ED005F50065A8420AD088
:101B78000C4DA84207D005F58065A84203D005F5AD
:101B88008065A84206D124F440558E694C693443D7
:101B980045EA04144460C2614A68C263036270BDC6
:101BA800002C014000400140036A23F48053036283
:101BB800036A30B54468C2690D6822F0807222F465
:101BC800E64242EA05228D6823F4005343EA0533CE
:101BD8000E4DA8420FD005F50065A8420BD005F5BB
:101BE8004065A84207D005F58065A84203D005F5F1
:101BF8008065A84204D14D6924F4804444EA8514E0
:101C08004460C2614A680264036230BD002C01402E
:101C180010B584680A4324F47F4442EA032323432B
:101C2800836010BD90F83C30012B70B504464FF02E
:101C380002001AD084F83D002068012384F83C3063
:101C48008268524B134083600B68402B75D018D8BC
:101C5800102B00F08F8009D8002B00F0858001231D
:101C6800002084F83D3084F83C0070BD202B00F043
:101C78008780302BF3D1836823F0700343F0370358
:101C880033E0702B33D01BD8502B3FD0602BE6D1DC
:101C98004D68CE68016A21F0100101628269036A09
:101CA80022F4704223F0A00343EA051342EA063205
:101CB80082610362836823F0700343F0670314E0D2
:101CC800B3F5805F0CD0B3F5005FC8D1CB684A6824
:101CD8008968FFF79DFF2268936843F4804313E007
:101CE800836823F4803323F007038360B7E7CB6866
:101CF8004A688968FFF78CFF2268936823F4803369
:101D080023F0770343F077039360A8E74A68CE6827
:101D1800016A056A25F001050562836921F00A0157
:101D280023F0F00343EA06130A43836102628368DF
:101D380023F0700343F05703D7E74A68CE68016A77
:101D4800056A25F001050562836921F00A0123F07F
:101D5800F00343EA06130A4383610262836823F0AF
:101D6800700343F04703C0E7836823F0700343F030
:101D78000703BAE7836823F0700343F01703B4E757
:101D8800836823F0700343F02703AEE78800FEFF63
:101D9800036A23F480330362036A30B54468426DF2
:101DA8000D6822F4803222F070022A438D6823F4F1
:101DB800003343EA05430F4DA8420FD005F50065EF
:101DC800A8420BD005F54065A84207D005F5806507
:101DD800A84203D005F58065A84204D14D6924F4D2
:101DE800803444EA0524446042654A688265036297
:101DF80030BD00BF002C0140036A23F48013036246
:101E0800036A30B54468426D0D6822F0807222F48E
:101E1800E04242EA05228D6823F4001343EA0553A1
:101E28000E4DA8420FD005F50065A8420BD005F568
:101E38004065A84207D005F58065A84203D005F59E
:101E48008065A84204D14D6924F4802444EA85249D
:101E5800446042654A68C265036230BD002C014097
:101E680038B590F83C30012B04460D464FF002007F
:101E780010D00123082A84F83C3084F83D0043D070
:101E880009D8FAB1042A2ED00123002084F83D3065
:101E980084F83C0038BD102A47D0142A56D00C2AA2
:101EA800F2D12068FFF780FE23682969DA6942F4D5
:101EB8000062DA61DA6922F48062DA61DA6942EA98
:101EC800012230E02068FFF799FD236829699A69A3
:101ED80042F008029A619A6922F004029A619A69AA
:101EE8000A439A61D0E72068FFF7D4FD236829697F
:101EF8009A6942F400629A619A6922F480629A614E
:101F08009A6942EA0122ECE72068FFF709FE236894
:101F18002969DA6942F00802DA61DA6922F0040212
:101F2800DA61DA690A43DA61AEE72068FFF730FF61
:101F3800236809695A6D42F008025A655A6D22F001
:101F480004025A655A6D0A435A659DE72068FFF7EF
:101F580053FF236809695A6D42F400625A655A6D45
:101F680022F480625A655A6D42EA0122ECE70000C9
:101F780090F83C30012B30B51CD002680E4D5368E8
:101F88009468AA4203D005F50065AA4203D14D68BA
:101F980023F470032B430D68896823F070032B43E7
:101FA80024F08004536021430023916080F83C3082
:101FB800184630BD022030BD002C014070477047E4
:101FC800704700000F4B834210B51AD10E4C22887F
:101FD800013292B222802288642091B2B1FBF0F2E1
:101FE80000FB121292B222B94FF400510748FEF7D3
:101FF800F6FD23884CF250329BB2934204BF002373
:10200800238010BD5401002020000020001000484B
:1020180008490B889AB2B2FBF0F300FB13239BB27A
:102028001BB10B889BB2002BF3D14FF4007102480F
:10203800FEF7D5BD2000002000100048C820FFF79B
:10204800E7BF0000DFF834D0002103E00C4B5B58F9
:10205800435004310B480C4B42189A42F6D30B4AB2
:1020680002E0002342F8043B094B9A42F9D3FEF7F9
:102078007DFA00F011F8FEF7ADF9FEE700A00020A8
:102088008021000800000020040000200400002037
:1020980040050020FEE7000070B50D4E0D4CA41B56
:1020A800A4100025A54209D10B4E0C4C00F018F8DD
:1020B800A41BA4100025A54205D170BD56F82530F3
:1020C80098470135EEE756F8253098470135F2E78D
:1020D8007821000878210008782100087C21000870
:1020E800F8B500BFF8BC08BC9E467047F8B500BFFD
:0820F800F8BC08BC9E467047CD
:102100002E2E5C436F72655C5372635C6932632E82
:1021100063002E2E5C436F72655C5372635C737058
:10212000692E6300000000000000000001020304AB
:10213000060708092E2E5C436F72655C5372635C60
:1021400074696D2E63002E2E5C436F72655C537252
:10215000635C7573622E63000203040506070809B9
:102160000A0B0C0D0E0F10100102030405060708E0
:08217000090A0B0C0D0E0F1003
:04217800AD010008AD
:04217C0089010008CD
:0421800000127A00CF
:040000050800204D82
:00000001FF
